S01600004156525F426F6F746C6F616465722E73726563BB
S11370000C942A380C9447380C9447380C9447381D
S11370100C9447380C9447380C9447380C944738F0
S11370200C9447380C9447380C9447380C944738E0
S11370300C9447380C9447380C9447380C944738D0
S11370400C9447380C9447380C9447380C944738C0
S11370500C94473811241FBECFE5D8E0DEBFCDBF66
S113706010E0A0E6B0E0E8E9F3E702C005900D9275
S1137070A238B107D9F720E0A2E8B0E001C01D9220
S1137080A538B207E1F70E9423390C94CA390C944D
S11370900038DC01FB018181813099F480811196F3
S11370A09C911197892B11968C9311978281813031
S11370B081F4808112969C911297892B12968C935D
S11370C008959081909511968C911197982311961B
S11370D09C930895442329F0FC012281622B62834E
S11370E008956095FC012281622362830895FC0166
S11370F0609592816923462B4283089541E068E0BC
S113710086E390E00E946A3885E08A95F1F70000F2
S113711040E068E086E390E00E946A388FE39FE1F4
S11371200197F1F700C000000895CF93C82F482FAE
S1137130407F60EF89E390E00E9477380E947E38B8
S113714080E1C89FA001112460EF89E390E00E94D0
S113715077380E947E38CF910895CF93C82F41E0AD
S113716062E086E390E00E946A3840E064E086E3EF
S113717090E00E946A388C2F0E949538CF91089530
S1137180CF93C82F40E066E086E390E00E946A381F
S11371908C2F0E949538CF910895CF93DF93EC0103
S11371A003C021960E94AD3888818111FACFDF9106
S11371B0CF910895E82FF0E0E15AFF4F8081860FC8
S11371C081500E94C0380895CF93DF932FEF89EF49
S11371D090E0215080409040E1F700C00000C2E8F8
S11371E0D0E081E089838EE088831A82BE0186E341
S11371F090E00E94493880EF8883BE0189E390E0E3
S11372000E94493883E30E94C03882E30E94C03858
S113721088E20E94C0388CE00E94C03881E00E945D
S1137220C038DF91CF910895CF93DF93EA010E9494
S1137230DA3803C021960E94AD3888818111FACFD3
S1137240DF91CF910895CF93DF93CDB7DEB7D250BE
S11372500FB6F894DEBF0FBECDBFE0E0F0E0E491DE
S1137260EF3FA1F00C94000000E010E011C0C80151
S11372700E94C239E1E0F0E0EC0FFD1FE00FF11FC6
S113728080838F3F49F00F5F1F4F02C000E010E082
S1137290011522E012075CF30E94E43882E690E0D4
S11372A00E94CD3842E750E061E082E00E94143948
S11372B08FEF9BE7E2E981509040E040E1F700C0A6
S11372C0000081E00E94C038DE0111960FB7F894E7
S11372D0C12CD12C76014BC0E199FECF07B600FC3E
S11372E0FDCFE199FECFB6017695762F6627779587
S11372F0679583E0FB0180935700E89507B600FC8F
S1137300FDCF20E030E019C01C91AD014E5F5F4F0E
S113731011968C9190E0982F8827810F911D07B6C4
S113732000FCFDCFE199FECFA1E00C01A093570032
S1137330E89511242E5F3F4FDA01F9012038310519
S113734018F307B600FCFDCFE199FECF85E0FB0101
S113735080935700E89507B600FCFDCF81E1809348
S11373605700E895FFEFCF1ADF0AEF0AFF0A24E07F
S1137370C216D104E104F10408F4AECF0FBF0C949B
S11373800000A4CFE199FECF9FBB8EBBE09A992762
S10B73908DB30895F894FFCFBA
S113739880C04E6F7720426F6F74696E6720496EA4
S11373A820002020202070726F677265737320207C
S10573B82000AF
S90370008C
