S0110000546F67676C654C65642E737265639C
S11300000C942A000C9434000C9434000C943400A6
S11300100C9434000C9434000C9434000C9434008C
S11300200C9434000C9434000C9434000C9434007C
S11300300C9434000C9434000C9434000C9434006C
S11300400C9434000C9434000C9434000C9434005C
S11300500C94340011241FBECFE5D8E0DEBFCDBF21
S11300600E9436000C9455000C94000080E881BB7B
S113007082B3806882BB2FEF83EC99E021508040EB
S11300809040E1F700C0000082B38F7782BB2FEF6E
S113009083EC99E0215080409040E1F700C00000DB
S11100A0809BE6CF0C94001CE3CFF894FFCFB6
S9030000FC
